:020000040800F2
:1000000008080020ED010008451D0008751C0008C7
:10001000411D0008E91700087B2A000800000000C5
:10002000000000000000000000000000B5210008F2
:10003000ED17000800000000672000089123000869
:10004000070200080702000807020008070200086C
:100050000702000807020008F1170008070200085D
:100060000702000835180008811800080702000878
:10007000070200080702000807020008070200083C
:10008000070200080702000807020008070200082C
:10009000070200080702000807020008070200081C
:1000A000070200080702000807020008070200080C
:1000B00007020008F5230008E524000807020008ED
:1000C00007020008070200080702000807020008EC
:1000D0000702000859280008070200080702000864
:1000E00007020008070200080702000807020008CC
:1000F00007020008070200080702000807020008BC
:1001000007020008070200080702000807020008AB
:10011000070200080702000807020008070200089B
:10012000070200080702000807020008070200088B
:1001300000F002F800F04AF80AA090E8000C8244AF
:100140008344AAF10107DA4501D100F03FF8AFF28C
:10015000090EBAE80F0013F0010F18BFFB1A43F0A5
:10016000010318475C4600007C460000103A24BF9B
:1001700078C878C1FAD8520724BF30C830C144BF0C
:1001800004680C607047000000230024002500264E
:10019000103A28BF78C1FBD8520728BF30C148BFEA
:1001A0000B607047662903F0B286642900F0548022
:1001B000002070471FB500F09BFB040000200021C9
:1001C00002F0ECFEE0601FBD10B510BD00F08CFC2D
:1001D0001146FFF7EFFF02F035FD00F0AAFC03B473
:1001E000FFF7F2FF03BC02F0BCFC000009488047A7
:1001F00009480047FEE7FEE7FEE7FEE7FEE7FEE709
:10020000FEE7FEE7FEE7FEE704480549054A064B20
:100210007047000095230008310100080802002003
:10022000080800200804002008040020704700008F
:100230000FB41CB5074B06AA7B446946009005988D
:1002400000F03DFB0020694600F04CFB1CBC5DF853
:1002500014FB0000A90600002DE9F0410646002429
:1002600010687529314616A510D0AFF3008000281C
:1002700002DA404213A507E031688A0701D512A5CA
:1002800002E0490704D511A5012401E0AFF3008085
:1002900000210A2206F1240709E0B0FBF2FCB0FBC2
:1002A000F2F302FB1C00303078541846491C002839
:1002B000F3D123462A463046BDE8F04100F093B81A
:1002C000000000002D0000002B00000020000000B6
:1002D0002DE9F0474FF0000A89460446C0F820A0F7
:1002E0002046E1688847002876D0252806D0D4E942
:1002F00001219047206A401C2062F1E7E168204616
:1003000000258847C4F81CA006460027C4F818A09A
:100310002A2E09D0304602F01DFC38B304EB8708C2
:10032000303EC8F8186019E059F8041B204604EB69
:1003300087029161E1688847012F064618D1E0697C
:10034000002820DA25F020051DE0D8F8180000EB81
:10035000800006EB40003038C8F818002046E168FD
:100360008847064602F0F6FB0028EED1012F0AD09E
:100370002E2E08D12046E16888477F1C0646022FB2
:1003800045F02005C4DBA069002803DA404245F0AF
:100390000105A061E80701D025F01005B6B1A6F16E
:1003A0004100192802D8203645F400654A463146F6
:1003B000204625604D46FFF7F5FE58B1012806D0CE
:1003C000ED1D25F0070000F1080989E704E005F1BB
:1003D000040985E730468AE7206ABDE8F087704760
:1003E0007047704770472DE9F0470D469946924691
:1003F000044600F124080168880604D5E06921F06C
:100400001001216000E00120A84201DD471B00E04F
:100410000027A1697A1902EB0900081AA061207867
:10042000C00602D42046AFF30080002608E0D4E9DD
:1004300001211AF806009047206A401C761C2062B1
:100440004E45F4DB2078C0060AD52046AFF3008085
:1004500006E0D4E9012130209047206A401C206248
:10046000381EA7F10107F4DC07E0D4E9012118F8F0
:1004700005009047206A401C2062281EA5F1010556
:10048000F3DC2046AFF300802078000602D502207E
:10049000BDE8F0870120FBE770472DE9FF4F0C46D0
:1004A0001E464FF0FF378BB0D2E90001DDF86080C7
:1004B0000A908A46C1F30A5505B93D46002108460F
:1004C0004FF00000BAF1000F00F4400005DA00EB35
:1004D00080004FF4400101EA50004FEA9059B9F111
:1004E000010F00DDB9460A9850EA4A000ED044F6E2
:1004F0001050A5F2FF3545432F14B8F1000F1ED060
:100500007542291E1EDDC9F100021CE0B8F1010F81
:100510004FF0000001D0302103E0F24305E0215408
:10052000401CB042FBDB30460022002121540B99D5
:10053000C1F80880C1E900200FB0BDE8F08FBD1BF5
:100540006D1CDEE74A4600DA694206A800F05AFA56
:1005500006AB93E8070003AB83E8070050460A990F
:1005600000F030FB8DE80700A0F500501F38009028
:100570000398002D09DD42F21F014A46084403A9F1
:100580000390684600F08FFD08E0A0F500504A4651
:100590001F3803A90390684600F099FD8DE8070015
:1005A0000004000C03D04FF0FF30410800E010467B
:1005B000B8F1000F03D00022009215461EE0751E10
:1005C00005D400F099F9303262556D1EF9D5B34665
:1005D0000122084302D000227F1C04E0207830284A
:1005E00001D100227F1E002A099786D01DE0112D1F
:1005F00007DA00F081F9303262556D1C50EA0102D1
:10060000F5D1084302D00098C8B10EE00021681E61
:1006100005E0235C625C63542254401E491C814205
:10062000F7DBAB46A81B401E0990002004F80B0026
:100630000B98099AC0F80880C0E9002B7CE71126C6
:100640004FF0000859E72DE9F04F88460446D21DC7
:1006500022F0070191B0D1E90001CDE90A0102F0D1
:1006600065FA02460B98C00F01D02D2007E02068E4
:10067000810701D52B2002E0202101EAC000032AD6
:10068000099001D0072A05DB03464146204600F0C9
:1006900079F90BE12078800601D5E06900E00620B9
:1006A000B8F1650F814606D0B8F1660F18D0B8F1E1
:1006B000670F70D131E00020B9F1110F009001DB1C
:1006C000112301E009F101030AAA01A90CA8FFF70F
:1006D000E4FEDDE90C70002609F10105834647E0E0
:1006E00001204B4600904FF000470AAA01A90CA830
:1006F000FFF7D3FEDDE90DB00C995D46002610B979
:1007000009F101000D18B9EB050003D4C0F1FF3663
:1007100009F10105A5EB09002BE0B9F1010F01DAA0
:100720004FF001090020B9F1110F0090484601DD9A
:10073000112300E003460AAA01A90CA8FFF7ADFEA9
:10074000DDE90C704D4600268346207800070AD468
:10075000AB4500DA5D4601A8012D04DD411911F811
:10076000011C302907D04F4502DA17F1040F04DAD3
:10077000012082460FE06D1EEEE7002F02DCED1B2C
:100780003E4403E0781CA84200DD7D1CB81B00F14C
:10079000010A4FF000472078000703D4AA4501DB87
:1007A0004FF0FF3A0021B7F1004F0DF143088DF8EB
:1007B000431024D002202B23002F01DA7F422D2367
:1007C0000A21021EA0F1010000DC5FB197FBF1FCE1
:1007D00097FBF1F201FB1C7C17460CF1300C08F87A
:1007E00001CDEEE7A8F1010003702188090501D5CC
:1007F000452100E06521A0F1010800F8011C0998DD
:100800000FA9A1EB0807FF1D00B10120411901EB61
:10081000EA70A1693844081A401EA0612078C00619
:1008200002D42046AFF30080099828B1D4E9012111
:100830009047206A401C20622078C00622D52046BE
:10084000AFF300801EE0002E04DBB34502DD01A8FB
:10085000805D00E03020D4E901219047206A401CEF
:100860002062761CAAF101005FEA000A0AD100F0BA
:100870003FF8C0680168405CD4E901219047206AD4
:10088000401C2062281EA5F10105DCDC07E0D4E94C
:10089000012118F8010B9047206A401C2062381E85
:1008A000A7F10107F3DC2046AFF30080032011B06D
:1008B00043E6000001694A1C02610878704700B5F0
:1008C0008FB0CDE901310021059105497944CDE989
:1008D000031011466846FFF7FBFC0FB000BD000097
:1008E000E5FFFFFF0A6802F8010B0A60704700008D
:1008F00000487047C401002030B5B0F10A024FEA49
:10090000900E71F100034EEA817EB0EB0E0061EBB8
:1009100091014FEA101E4EEA017E10EB0E0041EBF2
:1009200011114FEA102E4EEA016E10EB0E0041EB52
:1009300011214FEA104E4EEA014E10EB0E0041EB32
:100940001141401841F100014FEAD00040EA4170E6
:100950004FEAD10110EB80054FEA810444EA90741C
:1009600044EB01046D1944EB0404521BA3414FF006
:10097000000348BF0A3200D530BD401C41F10001E0
:1009800030BD00002DE9F0411F46044603260168F2
:10099000072A01F4006004DB08B116A505E016A5DE
:1009A00003E008B115A500E015A521F010002060B6
:1009B000A069C01EA0610FB1401EA0612046AFF328
:1009C00000804FB1D4E9012138469047206A401C8D
:1009D0002062C01C206206E0206AFAE7D4E9012107
:1009E00015F8010B9047761EF8D22046AFF3008031
:1009F000BDE8F0814E414E006E616E00494E4600EA
:100A0000696E66002DE9F047814616468AB0334884
:100A100078440DC88DE80D0030487844801C03AC44
:100A20000DC884E80D0041F69B300844372190FB47
:100A3000F1F290FBF1F5A5F1800501FB12041B3CDE
:100A400002D56442012000E00020DFF890A080463B
:100A50000027FA44AAF1BE0A0DE0E00709D03246A9
:100A6000684607EB47010AEB810100F030FB8DE897
:100A7000070064107F1C002CEFD1184F7F44AC3F5F
:100A800018E0E80714D007EB04100DF1180A90E8FD
:100A90000E008AE80E00C068F04201D19819089053
:100AA000324606A903A800F012FB03AB83E8070057
:100AB0006D10641C002DE4D132466946B8F1000F78
:100AC00003A802D000F0EFFA01E000F000FBC9E952
:100AD0000001C9F808200AB0BDE8F087943D000085
:100AE00000487047A40100207546FFF7F9FFAE46A5
:100AF00005006946534620F00700854618B020B52A
:100B0000FFF782FBBDE820404FF000064FF00007E2
:100B10004FF000084FF0000B21F00701AC46ACE8A5
:100B2000C009ACE8C009ACE8C009ACE8C0098D4612
:100B3000704710B50446AFF300802046BDE8104072
:100B4000FFF74DBB4FF0013C50F8042B51F8043B2C
:100B50009A4221D1A2EB0C03934313EACC1317D191
:100B600050F8042B51F8043B9A4215D1A2EB0C0328
:100B7000934313EACC130BD150F8042B51F8043BE8
:100B80009A4209D1A2EB0C03934313EACC13DBD0B6
:100B90004FF00000704700BFD01A01BAB1FA81F1DE
:100BA00001F0180122FA01F0CB40C1F12001DBB2C3
:100BB000C0B2C01A2CFA01F3D11A914311EAC31141
:100BC000E6D170475FEA400C08BF91F0000F4FEA92
:100BD0008C234FEAC12243EA51514FEA1C5018BFFF
:100BE00000F5F0404FEA300018BF41F000415FEAE5
:100BF0006C5C00F02980BCF1FF3F08BF40F08040F2
:100C00007047130C06BF12044FF0100C4FF0000C8D
:100C1000130E04BF12020CF1080C130F04BF1201D3
:100C20000CF1040C930F04BF92000CF1020CD30FD3
:100C300004BF52000CF1010C11464FF00002A0F16C
:100C40001F00A0EB0C00704711F0004F08BF704769
:100C500031F000413FF4D5AF0B0C06BF09044FF053
:100C6000100C4FF0000C0B0E04BF09020CF1080C25
:100C70000B0F04BF09010CF1040C8B0F04BF89009A
:100C80000CF1020CCB0F04BF49000CF1010CCCF1AC
:100C90002003A0EB0C0022FA03F302FA0CF241EA63
:100CA000030100F10100704720F07F4C80EA03004F
:100CB00023F07F47ACEB070303F57C5300F00040C3
:100CC00003F1FF032DE980494FEA154B09B44FEAC0
:100CD000144325EA0B4E24EA03480FF2042606EBE0
:100CE000132749083E785FEA320203FB0667C7F51F
:100CF000000707FB06F64FEA54374FEAD64606F1DF
:100D0000020607FB066CCCF1005C4FEA1C472CEA9C
:100D1000074C07FB06F40CFB06F504EB15464FEAFF
:100D2000961634BF00204FF000404FEAD13706FB43
:100D300007FC4FEA1C4C0CFB0BF7D21B03FB0CF718
:100D400061EB07010CFB0EF7B0EB074072EB1742AB
:100D50000CFB08F734BFA2EB0742B2EB074261EB92
:100D600017414FEA0C444FEA910706FB07FC4FEA94
:100D70001C4C0CFB0BF7B0EBC74072EB573203FB7C
:100D80000CF734BFA2EBC742B2EBC74261EB57315D
:100D90000CFB0EF7B0EBC70072EB57720CFB08F7B9
:100DA00034BFA2EBC702B2EBC70261EB5771039FDE
:100DB0004FEA816141EA921104EBCC044FEAD1374A
:100DC0004FEA826206FB07FC42EA90124FEA80601B
:100DD0004FEA1C4C0CFB0BF7D21B03FB0CF761EB2F
:100DE00007010CFB0EF7B0EB074072EB17420CFB50
:100DF00008F734BFA2EB0742B2EB074261EB1741A1
:100E00004FEA8C554FEA910704EB9C2406FB07FC44
:100E10004FEA1C4C0CFB0BF7B0EBC74072EB5732A0
:100E200003FB0CF734BFA2EBC742B2EBC74261EB46
:100E300057310CFB0EF7B0EBC70072EB57720CFB8F
:100E400008F734BFA2EBC702B2EBC70261EB5771E0
:100E500015EB4C254FEA816141EA92114FEA82621B
:100E60004FEAD13742EA901206FB07FC44F1000436
:100E70004FEA80604FEA1C4C0CFB0BF7D21B03FBC4
:100E80000CF761EB07010CFB0EF7B0EB074072EBC0
:100E900017420CFB08F734BFA2EB0742B2EB074244
:100EA00061EB174115EB1C154FEA813141EA924184
:100EB0004FEA823242EA90424FEA80304FEA0C76A3
:100EC00044F1000448EA03434EEA0B484FF0000E99
:100ED000B2EB080C71EB030724BF624639464EEBB8
:100EE0000E0E4FF0000B0018524149414BEB0B0B1B
:100EF000B2EB080C71EB03077BF1000B24BF6246D9
:100F000039464EEB0E0E4FF0000B0018524149418E
:100F10004BEB0B0BB2EB080C71EB03077BF1000BF7
:100F200024BF624639464EEB0E0E51EA020718BF47
:100F300046F0010616EB0E7655F1000254F1000161
:100F400003D5BDE88901BDE80088BDE88901BDE899
:100F50000048B619524141EB0101A3F1010370476A
:100F600080807F7E7D7C7B7A7978777676757473E6
:100F7000727171706F6E6E6D6C6C6B6A6A696868A5
:100F8000676666656464636362616160605F5F5E3B
:100F90005E5D5D5C5C5B5B5A5A59595858575756B1
:100FA0005655555554545353525252515150505016
:100FB0004F4F4F4E4E4D4D4D4C4C4C4B4B4B4A4A68
:100FC0004A494949484848474747474646464545AC
:100FD00045444444444343434342424242414141E5
:100FE000002B26D4770021D01CB54FEA370703B475
:100FF0004FF010004FF010014FF000000FBCBDE8A3
:1010000010400BF1010BBBF1010F08BF5FEA17079E
:1010100022BF12F1010211F101014FF0004143F131
:10102000000300F0004043EA00007047F9D357087E
:10103000DAE746EA064613F1400F4FEA16461FDD8F
:1010400013F1200FDFBF16430A46002120335B4215
:10105000C8D0C3F1200746EA064602FA07F74FEA6E
:10106000164646EA0706C3F1200722FA03F201FA00
:1010700007F721FA03F14FF0000342EA0702B1E754
:1010800046EA020646EA06464FEA164646EA0106E0
:10109000BCBF46EA0646360C4FF000034FF0000294
:1010A0004FF000019EE72DE9C048934630B491E827
:1010B000380007C831EA400C48BF34EA430C03D576
:1010C000FFF7F2FDFFF78CFFF0BCBDE800882DE9CB
:1010D000C048934630B491E8380007C810F0804FFC
:1010E00008BF13F0804F03D100F005F8FFF778FF39
:1010F000F0BCBDE8008820F07F4780EA030023F0C1
:101100007F4C07EB0C03A3F57C5300F00040A3F1E8
:10111000FE0392F0000F00F0B38095F0000F00F096
:1011200077802DE901494FEA11404FEA144621EA40
:10113000004800FB06FC24EA064708FB06F607FB0E
:1011400008F800FB07F718EB06484CEB164C4FEA83
:10115000124B18EB07484FEA15464CEB174022EAB2
:101160000B4E0BFB06FC25EA06470EFB06F607FBBB
:101170000EFE0BFB07F71EEB064E4CEB164C4FF02A
:1011800000061EEB074E4CEB174B18EB0B0840F11B
:10119000000018EB0E0B58EB000840F100008F1A0E
:1011A0004FF000013CBFC943661B14BFB5EB040CF4
:1011B00000213CBFC943F61B4FEA17444EEA8E0E8E
:1011C00027EA04454FEA1C4704FB07622CEA074C58
:1011D00005FB07F70CFB05F604FB0CFC16EB0746BA
:1011E00042EB174216EB0C4642EB1C421BEB060689
:1011F00058EB0202414146EA9E0601D5BDE801894D
:10120000B619524141EB0101A3F10103BDE8018987
:101210004FEA14454FEA114724EA054621EA074CF4
:1012200005FB07F406FB07F70CFB06F105FB0CFCBE
:1012300011EB074144EB17444FEA124711EB0C4105
:1012400044EB1C4422EA074C05FB07F206FB07F7B8
:101250000CFB06F605FB0CFC16EB074642EB1742AF
:1012600016EB0C4642EB1C456A1854F1000148BFCE
:101270007047B619524141EB0101A3F101037047D8
:1012800095F0000F37D04FEA11424FEA144721EA98
:10129000024624EA074C02FB07F106FB07F70CFBAA
:1012A00006F402FB0CFC14EB074441EB17414FEA38
:1012B000154714EB0C4441EB1C4125EA074C02FB9B
:1012C00007F506FB07F70CFB06F602FB0CFC16EB1A
:1012D000074645EB174516EB0C4645EB1C42121929
:1012E00051F1000148BF7047B619524141EB01016D
:1012F000A3F1010370474FEA14454FEA114724EA6E
:10130000054621EA074C05FB07F106FB07F70CFB36
:1013100006F24FF0000605FB0CFC12EB074241EB16
:10132000174112EB0C4251EB1C4148BF7047921819
:1013300041EB0101A3F10103704721B1826842F042
:101340000102826003E0826822F00102826070473D
:1013500010B504461248844208D10121401500F01E
:10136000AFFE0021601500F0ABFE17E00D4884428F
:1013700008D10121001500F0A3FE0021201500F086
:101380009FFE0BE00848844208D10121C80300F009
:1013900097FE00214FF4004000F092FE10BD0000C7
:1013A0000024014000280140003C0140014600208B
:1013B0008A6802F004020AB1012000E000207047B0
:1013C0000146C86C80B270470246002013680B408B
:1013D0000BB1012000E000207047014600208A6820
:1013E00002F008020AB1012000E00020704700006E
:1013F00030B502460020002350680F4C20400D7984
:101400000C6844EA05242043506090680B4C20404F
:10141000D1E902542C434D7944EA450420439060BD
:10142000D06A20F470000C7C641EE4B2234340EACE
:101430000350D06230BD0000FFFEF0FFFDF7F1FF6A
:10144000F0B504460D4600200021092D11DDE068AD
:10145000A5F10A0606EB4607072606FA07F18843B8
:10146000A5F10A0606EB460603FA06F10843E0601A
:101470000CE0206905EB4507072606FA07F18843CB
:1014800005EB450603FA06F108432061072A0FDA47
:10149000606B561E06EB86071F2606FA07F1884387
:1014A000561E06EB860605FA06F10843606322E045
:1014B0000D2A0FDA206BD61F06EB86071F2606FAC9
:1014C00007F18843D61F06EB860605FA06F10843A6
:1014D000206310E0E06AA2F10D0606EB86071F26E6
:1014E00006FA07F18843A2F10D0606EB860605FA17
:1014F00006F10843E062F0BD816841F008018160B7
:10150000704721B1826842F4A002826003E08268E1
:1015100022F4A00282607047816841F0040181607A
:1015200070472DE9F043B3B081464FF00008002525
:101530000AE0484600F084FB01A921F815000520C7
:1015400001F05AFB681CC5B2642DF2DB00261EE0D8
:10155000002416E001A830F8141001AA601C32F82B
:10156000100081420BDD01A830F8147001A9601C45
:1015700031F8100021F81400601C21F81070601C74
:10158000C4B2C6F16400A042E4DC701CC6B2632E93
:10159000DEDB1E2505E001A830F815008044681C3C
:1015A000C5B2462DF7DB282098FBF0F080B233B0AF
:1015B000BDE8F08308B50121042000F071FD4FF46F
:1015C0008070ADF8000018208DF8030003208DF81E
:1015D00002006946164800F051FA0121082000F087
:1015E0005FFD4FF40050ADF8000018208DF80300A7
:1015F00003208DF8020069460E4800F03FFA0121F1
:10160000082000F04DFD4FF48050ADF80000182088
:101610008DF8030003208DF802006946054800F0AC
:101620002DFA4FF48051034800F005FB08BD00007F
:1016300000080140000C014010B5FFF7BBFF00F0AF
:1016400001F810BD00B58BB00121C80200F028FDE3
:1016500040F29F50ADF824000020ADF82000ADF816
:101660002600ADF822008DF8280008A92C4801F0CA
:10167000A1F86020ADF810000120ADF812000420A0
:10168000ADF814000020ADF81800ADF81A004FF4C2
:101690008070ADF81C000020ADF81E004FF44870BB
:1016A000ADF8160004A91E4800F072FF08211C487E
:1016B00000F0BAFF04A91A4800F0C0FF082118483A
:1016C00001F00EF804A9164801F018F80821144892
:1016D00001F064F84FF40060ADF800004010ADF880
:1016E00002008010ADF804000A20ADF806004FF4A7
:1016F0008050ADF808004000ADF80A004000ADF899
:101700000C006946064800F0FBFE0121044800F089
:101710000AFF0121024800F012FF0BB000BD0000DB
:10172000002C014000B587B001214FF4017000F09A
:10173000B7FC4FF4004000F097FC4620ADF80400E1
:1017400000208DF8070001A9174800F097F9174805
:10175000FFF7FEFD002002908DF80C008DF80D00C3
:101760004FF4602004900020059001208DF81800AF
:1017700002A90E48FFF73CFE01210C48FFF7DDFDF2
:101780000A48FFF7B9FE00BF0848FFF726FE002809
:10179000FAD10648FFF7C0FE00BF0448FFF706FE77
:1017A0000028FAD107B000BD000801400024014024
:1017B00008B50121082000F073FC4FF48070ADF8EB
:1017C000000010208DF8030003208DF80200694608
:1017D000044800F053F94FF48071024800F02BFAEE
:1017E00008BD0000000C014000BFFEE7704700008C
:1017F00010B50A2001F0DAF90121094800F012FAC7
:1018000048B90120074908604103074800F013FA6E
:10181000064807490860012000F0C0F810BD00002C
:10182000000801402C000020001001400000F041A1
:10183000C00000202DE9F0410A2001F0B7F908218D
:101840000B4800F0EFF968B90A48006802F01EF88A
:101850000646094A094B01F0E9FB044601F0B4FBD6
:1018600004490860082000F099F8BDE8F081000004
:1018700000080140C00000209A9999999999B93FB0
:101880002DE9F0410A2001F091F910210B4800F0F8
:10189000C9F968B90A48006801F0F8FF0646094A24
:1018A000094B01F009FF044601F08EFB0449086072
:1018B000102000F073F8BDE8F0810000000801403E
:1018C000C00000209A9999999999B93F0EB50121C4
:1018D000084600F0E5FB0321002000F0AFF80820E7
:1018E000019000208DF808000C208DF8090001A857
:1018F00000F05AF8684600F03BFA09208DF8000025
:1019000000208DF8010001208DF802008DF8030001
:10191000684600F02DFA0421002000F08FF8102016
:10192000019000208DF808000C208DF8090001A816
:1019300000F03AF8684600F01BFA0A208DF8000023
:1019400001208DF8010000208DF8020001208DF8A3
:101950000300684600F00CFA0021084600F06EF81B
:101960000120019000208DF808000C208DF809005E
:1019700001A800F019F8684600F0FAF906208DF881
:10198000000001208DF8010000208DF802000120E8
:101990008DF80300684600F0EBF90EBD01490860C0
:1019A0007047000014040140002123498279002A75
:1019B0003AD00A46126803689A430B461A600A1D19
:1019C000126803689A430B1D1A60027911440A6871
:1019D00003681A430A60184A0832126803689A4377
:1019E000154B08331A601A1D126803689A43124B8C
:1019F0000C331A604279102A0ED11A1F126803683C
:101A00001A430D4B08331A601A1D126803681A43F3
:101A1000094B0C331A600DE00749427911440A68FA
:101A200003681A430A6005E0027911440A680368F2
:101A30009A430A60704700000004014030B500225C
:101A40008B071C0F0F2303FA04F20B4B8C1053F877
:101A500024309343084C8D1044F8253023468C10D5
:101A600053F824308C07240F00FA04F42343024C6B
:101A70008D1044F8253030BD080001402DE9F041BB
:101A8000024600250026002000230024002791F8AC
:101A900003C00CF00F0591F803C00CF0100CBCF162
:101AA000000F03D091F802C04CEA050591F800C080
:101AB000BCF1000F31D0146800202BE04FF0010C76
:101AC0000CFA00F3B1F800C00CEA03069E4220D1E4
:101AD00083004FF00F0C0CFA03F7BC4305FA03FC2C
:101AE0004CEA040491F803C0BCF1280F06D14FF072
:101AF000010C0CFA00FCC2F814C00AE091F803C013
:101B0000BCF1480F05D14FF0010C0CFA00FCC2F8F3
:101B100010C0401C0828D1D31460B1F800C0BCF13B
:101B2000FF0F34DD546800202EE000F1080C4FF068
:101B3000010808FA0CF3B1F800C00CEA03069E4253
:101B400021D183004FF00F0C0CFA03F7BC4305FAC8
:101B500003FC4CEA040491F803C0BCF1280F05D142
:101B600000F1080C08FA0CF8C2F8148091F803C0D0
:101B7000BCF1480F07D100F1080C4FF0010808FA3A
:101B80000CF8C2F81080401C0828CED35460BDE881
:101B9000F0810000F0B50A46002300240021002552
:101BA00000F00046B6F1004F02D11D4EF16901E090
:101BB0001B4E7168C0F3034583B200F44016B6F5BE
:101BC000401F08D121F07061154E766826F07066CE
:101BD000134F7E6012E000F48016B6F5801F06D128
:101BE000032606FA05F4A14341F0706106E0460DB4
:101BF000360103FA06F6B14341F0706122B1460D99
:101C0000360103FA06F6314300F00046B6F1004F04
:101C100002D1034EF16101E0014E7160F0BD0000A0
:101C2000000001400246002093680B400BB10120E8
:101C300000E000207047416170470161704700007B
:101C400010B504460323012221460948FFF7F8FB9B
:101C500001210748FFF755FC00BF02210448FFF7A8
:101C6000B3FB0028F9D00248FFF7AAFB10BD000023
:101C70000024014000BFFEE710B520210748FFF710
:101C8000DCFF80210548FFF7D8FF80210348FFF7DC
:101C9000D2FF20210148FFF7CEFF10BD0008014010
:101CA00010B520210548FFF7C8FF80210348FFF742
:101CB000C2FF80210148FFF7C0FF10BD00080140AE
:101CC00010B520210348FFF7B8FF20210148FFF796
:101CD000B2FF10BD0008014008B50121042000F04A
:101CE000DFF901210648FFF755FF1920ADF8000084
:101CF00048208DF8030069460248FFF7BFFE08BD83
:101D0000000230000008014008B50121102000F059
:101D1000C7F94FF40050ADF8000010208DF8030013
:101D200003208DF8020069460448FFF7A7FE4FF430
:101D300000510248FFF781FF08BD0000001001407C
:101D400000BFFEE7704708B54FF4A06000F048F808
:101D500025208DF8000001208DF8030002208DF869
:101D600001008DF80200684600F002F808BD00008E
:101D700070B5002100230F22C47804B3154C2468E9
:101D800004F4E064C4F5E064210AC1F10403CA402C
:101D9000447804FA03F184781440214309010E4C7D
:101DA0000678A155047804F01F050124AC4005789D
:101DB0006D11AD0005F1E025C5F8004109E004789A
:101DC00004F01F050124AC40044D0678761145F857
:101DD000264070BD0CED00E000E400E080E100E092
:101DE00002490143024A1160704700000000FA05F1
:101DF0000CED00E070B5002418E004F1B000002103
:101E000000F025F90021084600F021F900211020FA
:101E100000F01DF9002505E00121002000F017F970
:101E2000681CC5B2802DF7DB601CC4B2082CE4DB53
:101E300070BD000008B50121042000F031F9A02098
:101E4000ADF8000010208DF8030003208DF802008B
:101E500069463C48FFF712FEA0213A48FFF7EDFE25
:101E60004FF4487000F0A2FE0021AE2000F0EFF821
:101E70000021084600F0EBF80021102000F0E7F800
:101E80000021402000F0E3F80021B02000F0DFF84E
:101E90000021812000F0DBF80021FF2000F0D7F8BE
:101EA0000021A12000F0D3F80021A62000F0CFF8F7
:101EB0000021A82000F0CBF800213F2000F0C7F857
:101EC0000021C82000F0C3F80021D32000F0BFF8A3
:101ED0000021084600F0BBF80021D52000F0B7F83B
:101EE0000021802000F0B3F80021D82000F0AFF8E6
:101EF0000021052000F0ABF80021D92000F0A7F860
:101F00000021F12000F0A3F80021DA2000F09FF872
:101F10000021122000F09BF80021DB2000F097F850
:101F20000021302000F093F800218D2000F08FF880
:101F30000021142000F08BF80021AF2000F087F87A
:101F400008BD00000008014070B504460D4605F1CB
:101F5000B000002100F07BF8102141EA14100021AC
:101F600000F075F804F00F00002100F070F870BD6B
:101F70002DE9F04707460E46904699460025002475
:101F8000A8F12000C5B27F2F02DD0027B01CC6B229
:101F9000B9F1100F24D131463846FFF7D5FF0024A0
:101FA00008E004EB0511194A505C012100F04FF8DC
:101FB000601CC4B2082CF4DB701CC1B23846FFF7B9
:101FC000C3FF002409E004EB051108310F4A505CFF
:101FD000012100F03CF8601CC4B2082CF3DB12E0D5
:101FE00031463846FFF7B0FF00240AE005EB450113
:101FF000074A02EB4101085D012100F028F8601C4E
:10200000C4B2062CF2DBBDE8F08700003A410008BC
:10201000123F00082DE9F04104460F461546984648
:1020200000260FE0AA5D434639462046FFF7A0FF91
:1020300004F10800C4B2782C02DD0024B81CC7B239
:10204000701CC6B2A85D0028ECD1BDE8F08170B567
:1020500004460D461DB1E0B200F052FD02E0E0B2D0
:1020600000F038FD70BD704701460020034A5068FB
:1020700020F44040084350607047000000100240C8
:1020800029B1064AD2690243044BDA6104E0034AEB
:10209000D2698243014BDA617047000000100240B0
:1020A00029B1064A92690243044B9A6104E0034A4B
:1020B00092698243014B9A61704700000010024010
:1020C00029B1064AD2680243044BDA6004E0034AAD
:1020D000D2688243014BDA60704700000010024072
:1020E00030B500210022002400232D4D6D6805F03D
:1020F0000C0121B1042905D0082923D105E0294D7F
:10210000056022E0274D05601FE0254D6D6805F450
:102110007012234D6D6805F48034022505EB924260
:102120001CB9214D554305600BE01D4D6D6805F44C
:1021300000351DB11C4D5543056002E0194D554356
:10214000056002E0174D056000BF00BF144D6D68CB
:1021500005F0F0010909154D6B5C0568DD4045602F
:102160000F4D6D6805F4E061090A104D6B5C456820
:10217000DD4085600A4D6D6805F46051C90A0B4D5C
:102180006B5C4568DD40C560054D6D6805F44041F8
:10219000890B074D6B5CC568B5FBF3F5056130BD78
:1021A0000010024000127A0000093D007200002079
:1021B00082000020704710B500F002F810BD00004A
:1021C0000CB50020019000903348006840F4803046
:1021D0003149086000BF3048006800F400300090CA
:1021E0000198401C0190009818B90198B0F5A06FB3
:1021F000F1D12948006800F4003010B101200090AE
:1022000001E0002000900098012843D12348006895
:1022100040F01000214908600846006820F00300E3
:1022200008600846006840F0020008601A484068EC
:10223000194948600846406848600846406840F4CC
:10224000806048600846406820F47C10486008467A
:10225000406840F4E81048600846006840F080702C
:10226000086000BF0C48006800F000700028F9D03A
:102270000948406820F00300074948600846406864
:1022800040F00200486000BF0348406800F00C00C6
:102290000828F9D10CBD00000010024000200240C7
:1022A0002DE9F04704460D462946204601F0AFFDD2
:1022B00024490860084601682348006801F012FBC1
:1022C0002149086021492048006801F06FFD01D2D2
:1022D0001E4809E01E491C48006801F067FC01D255
:1022E0001B4801E018480068174908601948016850
:1022F0001448006801F096FD804617480168404682
:1023000001F088FC0646104801681448006801F096
:1023100081FC80460B4801681148006801F07AFC96
:102320008146414601F0DEFA0746314601F0DAFA0D
:102330000C490860034800680649086009480068BD
:10234000BDE8F087B0000020B80000200080ED4418
:102350000080EDC4BC000020CC000020C80000209C
:10236000C4000020B4000020042808D14FF0E02170
:10237000096941F004014FF0E022116107E04FF0DC
:10238000E021096921F004014FF0E022116170475A
:102390007047000010B51348006840F00100114973
:1023A000086008464068104908400E4948600846E1
:1023B00000680E4908400B4908600846006820F490
:1023C000802008600846406820F4FE0048604FF412
:1023D0001F008860FFF7EFFE4FF0006004490860BF
:1023E00010BD0000001002400000FFF8FFFFF6FEE5
:1023F00008ED00E010B501211B4800F0AFF870B304
:102400001A48006858BB00211948006801F0CEFC4A
:1024100025D21848016816480068FFF741FF0446B6
:1024200001F090FB14490880084600881349088091
:102430001148008840F21451884202DD08460E49D6
:1024400008800D480088B0F5E17F03DA4FF4E170B1
:102450000949088008480188094800F0A8F90121C5
:10246000014800F05DF810BD000400402C00002081
:1024700020000020C0000020A6000020A4000020B2
:10248000002C01407FB505460C4601210220FFF7D4
:10249000F7FDADF80850ADF804400020ADF80A0093
:1024A000ADF8060001A90E4800F084F9012211469A
:1024B0000B4800F064F81D208DF8000000208DF816
:1024C000010003208DF8020001208DF8030068460A
:1024D000FFF74EFC0121024800F025F87FBD000007
:1024E0000004004010B50121044800F037F818B18D
:1024F0000121024800F014F810BD0000000800405F
:102500000A884B881A438B881A43CB881A430B8955
:102510001A434B891A438B891A43A0F84420704709
:10252000CA430282704721B1028842F00102028050
:1025300004E002884FF6FE731A400280704731B102
:10254000B0F8442042F40042A0F8442005E0B0F87E
:102550004420C2F30E02A0F84420704730B5024672
:10256000002000230024158A05EA0103958905EA65
:10257000010413B10CB1012000E0002030BD1AB1FC
:1025800083890B43838102E083898B438381704776
:1025900070B5002400220023058C4FF6FE763540EE
:1025A0000584028C8388048B4FF68F752C40B51EF2
:1025B0002C400D882C43751E2A400D892A434D88D6
:1025C0002A43144DA8420BD0134DA84208D0134DF6
:1025D000A84205D0124DA84202D0124DA84213D1F4
:1025E0004FF6F7752A404D892A434FF6FB752A406E
:1025F0008D882A434FF6FF652B404FF6FF552B4041
:102600008D892B43CD892B4383800483CD88858698
:10261000028470BD002C01400034014000400140A4
:1026200000440140004801400A460021018B4FF65A
:10263000F7731940114301837047000070B50024FF
:1026400000220023058C4FF6EF7635400584028C7E
:102650008388048B48F6FF752C404FF6FF452C40CD
:102660000D884FF6FF7606EA05252C434FF6DF75F9
:102670002A400D8906EA05152A434D8806EA051504
:102680002A43154DA84202D0144DA8421DD14FF641
:102690007F752A404D894FF6FF7606EA05152A43D5
:1026A0004FF6BF752A408D8806EA05152A434FF676
:1026B000FF352B404FF2FF752B408D8906EA8505CB
:1026C0002B43CD8906EA85052B4383800483CD887F
:1026D0000587028470BD0000002C014000340140D9
:1026E0000A460021018B4FF2FF7319404FF6FF732A
:1026F00003EA0223194301837047000070B50024E8
:1027000000220023058C4FF6FF6635400584028CBD
:102710008388848B4FF68F752C404FF6FC752C40C8
:102720000D882C434FF6FF552A400D894FF6FF7652
:1027300006EA05252A434D8806EA05252A43154D54
:10274000A84202D0144DA8421DD14FF2FF752A4075
:102750004D894FF6FF7606EA05252A434FF6FF35E9
:102760002A408D8806EA05252A434EF6FF752B4040
:102770004DF6FF752B408D8906EA05152B43CD8953
:1027800006EA05152B4383808483CD8885870284E0
:1027900070BD0000002C0140003401400A460021B9
:1027A000818B4FF6F77319401143818370478186FF
:1027B00070470000002202881D4B98420ED01D4B2E
:1027C00098420BD0B0F1804F08D01B4B984205D0F7
:1027D0001A4B984202D01A4B984204D14FF68F738D
:1027E0001A404B881A43174B984207D0164B984211
:1027F00004D04FF6FF431A40CB881A4302808B88DF
:1028000083850B8803850A4B98420BD0094B98426D
:1028100008D00E4B984205D00D4B984202D00D4B7C
:10282000984201D10B7A038601238382704700000E
:10283000002C01400034014000040040000800402A
:10284000000C004000100040001400400040014017
:10285000004401400048014010B540F225511D4898
:1028600000F04AF810B31B4800F002F9C4B21A484D
:10287000008800F40040C8B91748008800F4804080
:1028800060B10A2C03D000201349088020E01248D0
:10289000008840F400401049088019E00D2C06D152
:1028A0000D48008840F480400B49088010E00A4839
:1028B0000088C0F30D0009490C5407480088401CEB
:1028C0000549088008460088C72801DD00200880E7
:1028D00010BD00000038014070000020DA00002028
:1028E00021B1828942F40052828104E082894DF64E
:1028F000FF731A408281704770B50246002400239E
:102900000025002040F66A16B14200D100BFC1F395
:10291000421501F01F03012606FA03F3012D02D12F
:102920009689334006E0022D02D1168A334001E039
:10293000968A33400C12012606FA04F416883440B5
:1029400013B10CB1012000E0002070BDF0B50346CA
:10295000002400260025002040F66A17B94200D165
:1029600000BF1846C1F3421401F01F06012707FA01
:1029700006F5012C01D10C3004E0022C01D11030FD
:1029800000E014301AB107682F43076002E00768BF
:10299000AF430760F0BD00002DE9F04786B0054663
:1029A0000E460024A24600BFA1460027B08900B110
:1029B00000BF2F462C8A4CF6FF700440F088044379
:1029C0002C82AC894EF6F3100440B088318908435C
:1029D000718908430443AC81AC8A4FF6FF40044040
:1029E000B0890443AC8201A8FFF77AFB1F488742F5
:1029F00002D1DDF810A001E0DDF80CA0A88900F4F8
:102A0000004040B10AEBCA0000EB0A1031684900EF
:102A1000B0FBF1F807E00AEBCA0000EB0A103168DE
:102A20008900B0FBF1F86420B8FBF0F00401200944
:102A3000642101FB1089A88900F4004040B13220D4
:102A400000EBC900B0FBF1F000F00700044308E020
:102A5000322000EB09106421B0FBF1F000F00F0010
:102A600004432C8106B0BDE8F08700000038014027
:102A700001468888C0F30800704700BFFEE70000E9
:102A80002DE9F04105462C4620211148FFF7D3F8E7
:102A9000002619E0274607F08007802F04D1802107
:102AA0000B48FFF7CAF803E080210948FFF7C3F895
:102AB0006006040E20210648FFF7BFF820210448D5
:102AC000FFF7B9F8701CC6B2082EE3DBBDE8F08151
:102AD0000008014010B50446FFF7CEF87820FFF754
:102AE000CFFFFFF7EDF80020FFF7CAFFFFF7E8F888
:102AF0002046FFF7C5FFFFF7E3F8FFF7D1F810BD59
:102B000010B50446FFF7B8F87820FFF7B9FFFFF7D4
:102B1000D7F84020FFF7B4FFFFF7D2F82046FFF7C1
:102B2000AFFFFFF7CDF8FFF7BBF810BD490050EA43
:102B3000C12018BF04204A0D18BF40F0010040F228
:102B4000FF72B2EB515F08BF40F00200012808BFDE
:102B50000520704730380A2801D201207047002034
:102B60007047014600BF704710B56FF00400FFF7D3
:102B7000FBFB0A4800680A49B0FBF1F009490870FC
:102B80000846007800EB4001C1EBC0104FF6FF7122
:102B900001EAC0000449088010BD00003400002094
:102BA00000127A00580000205A0000200146114A05
:102BB00012884A434FF0E0235A6100229A611A4674
:102BC000126942F001021A6100BF4FF0E022106961
:102BD00000F001021AB100F48032002AF5D04FF063
:102BE000E022126922F001024FF0E0231A61002274
:102BF0009A6170475A0000200146114A12784A43F0
:102C00004FF0E0235A6100229A611A46126942F09D
:102C100001021A6100BF4FF0E022106900F00102CA
:102C20001AB100F48032002AF5D04FF0E022126988
:102C300022F001024FF0E0231A6100229A617047EE
:102C4000580000200EB5FFF78FFFFFF77CF84FF418
:102C5000E13000F053F9FEF7ABFDFEF763FDFFF73F
:102C6000E9F8FFF7C7F8FFF74FF8FFF735F8FEF779
:102C70002DFEFEF79DFD472142F20F70FFF702FC8B
:102C8000FEF7DAFC012078490860002077490860E7
:102C9000E8E00120FEF745FC009000F073FF4FF0E4
:102CA0008B41019000F08CFE029000F0EFFD804619
:102CB0004FF066326E4B00F001FC82466D4A6E4B5F
:102CC00000F068FA06466D4A6D4B00F0F7FB0446CB
:102CD00000F07AF96B4908600220FEF722FC824678
:102CE00000F050FF81464FF08B4100F069FE044632
:102CF00000F0CCFD07464FF066325D4B00F0DEFB86
:102D0000054600F061F9604908600846006800F077
:102D1000BDFD06465D4A5E4B00F0D0FB044600F068
:102D200053F9594908600846006800F0AFFD0646AF
:102D3000584A594B00F0C0FC044600F045F952498E
:102D400008600846006800F0A1FD04464B4A534B5A
:102D500000F078FB02D200204B4908600620FEF705
:102D6000E0FB009000F00EFF4FF08B41019000F06F
:102D700027FE029000F08AFD82464FF066323C4BFF
:102D800000F09CFB0646464A464B00F097FB044683
:102D9000454A464B00F04AF9804600F015F944498F
:102DA000086044493748006801F000F802D200206A
:102DB0002D4908604048028840A14348FDF738FA91
:102DC0001023414A00210846FFF724F927480068EC
:102DD000E0B92C48006800F059FD044622460B4635
:102DE0003AA13948FDF724FA1023374A022100207E
:102DF000FFF710F9102338A202216E20FFF70AF91D
:102E0000102336A206216E20FFF704F91E48006841
:102E100000F03CFD044622460B4631A12A48FDF74E
:102E200007FA1023284A04210020FFF7F3F81023A3
:102E30002AA204216E20FFF7EDF82C48006800F06C
:102E400025FD044622460B4629A11F48FDF7F0F94F
:102E500010231D4A06210020FFF7DCF84FF4FA701A
:102E6000FFF7A4FE15E70000A08121422C000020FE
:102E700066660A40EC866D8B321BA43F9A9999993D
:102E80009999B93F1C00002020000020250681955B
:102E9000438BFE3F60E5D022DBF908409999A93FBA
:102EA000E17A14AE47E134407BBDFBE3BD6AA53F48
:102EB000240000200000C041A400002070776D2095
:102EC0003A25642020000000D0000020563A252E2C
:102ED0003366202000000000560000004100000082
:102EE000493A252E3366202000000000C000002053
:102EF0005365743A252E32660000000010B586B086
:102F00000446012144F20400FFF7CAF84FF40070B0
:102F1000ADF8140003208DF8160018208DF8170066
:102F200005A91C48FEF7AAFD4FF48060ADF8140017
:102F300004208DF8170005A91648FEF79FFD2520EF
:102F40008DF8000003208DF801008DF802000120AB
:102F50008DF803006846FEF70BFF01940020ADF8E2
:102F60000800ADF80A00ADF80C00ADF810000C2018
:102F7000ADF80E0001A90848FFF70EFD012240F24E
:102F800025510548FFF7E2FC01210348FFF7A8FCA3
:102F900006B010BD000801400038014010B50029FE
:102FA0000AD00878002807D005487844FDF7CAFD04
:102FB000002801D0002010BD0248784410BD000058
:102FC000361800002E18000021F00042A2F16052D5
:102FD000B2F5801F01F0004328BFD2F17F6C0BD9FE
:102FE0005FEA001C43EAC20242EB507018BF704710
:102FF00028BF20F001007047B2F5801FBCBF184603
:1030000070474FEA410C1CF5001F02D2084600F041
:10301000C8BE70B500F0FCFA00000089FFF7F6BFEB
:103020004FF00040A0F580007047000010B591EA15
:10303000030F48BF83F0004300F14683841A71EB0D
:10304000030C05D2121943EB0C03001B61EB0C01BE
:10305000DFF824E14FEA1154A4EB135C1EEA430F9E
:1030600018BF9EEA445F73D023EA0E03DCF1200E02
:1030700021EA045143F4801332D322FA0CFE10EB00
:103080000E0023FA0CFE41EB0E01CCF1200E03FAE8
:103090000EFE10EB0E0051F10001B1F5801FCCF1D6
:1030A000200E32D201EB045112FA0EF2BDE81040AC
:1030B00058BF7047401C38BF5FEA420218BF7047D4
:1030C000002814BF20F0010041F100014FEA410344
:1030D00013F5001F38BF7047A1F1C04100F0E6BAF8
:1030E000012A43EB0302ACF1200CDCF11F0E32BFCE
:1030F0004FF0000E23FA0CF310EB030041EB0451E8
:10310000B4EB115FD0D0A1EB045101F58011490857
:103110005FEA300001EB04510ED350F1000038BFDC
:1031200012FA0EFE08D1BDE81040C9E7401C38BFB6
:103130005FEA4202CAD1C3E7BDE810404FEA41034B
:1031400013F5001F38BF7047A1F1C04100F0AEBABF
:103150009EEA445F08D011EA5E0FBDE8104004BF4C
:1031600001F0004100207047BDE8104070B500F04C
:103170004FFA00BF64FBBE3E0000E0FF491058BF9D
:10318000C1F140415B1058BFC3F140438B42EFF3A4
:10319000008070472DE9C04130B4DFF8A0C23CEA9E
:1031A000111418BF3CEA131400F0EC8081EA030507
:1031B0001CEA111444EAD57418BF1CEA131500F078
:1031C000C780A4EB05044FF0004545EAC12145EA5C
:1031D000C32341EA505143EA525304F17F749942A8
:1031E00004F500344FEAC0204FEAC22208BF9042E3
:1031F00000F09C804FEA13650FF24016765D4FEAAF
:10320000134506FB05F7C7F1807706FB07F74FEA82
:10321000D737A7FB03687642C8F58038A7FB06CEF0
:1032200038BFA8F1010807FB08E64FF0000EA6FB27
:10323000028CE6FB03CEDCF1000CCEF1004E38BF71
:10324000AEF1010EA6FB0C584FF000074FF0000541
:10325000E6FB0E87A1FB08C6A0FB07CE16EB0E0609
:1032600045F10005E1FB076515F1E04E7EBFA4F5D1
:1032700080345FEA46066D4116F1800745F100058E
:103280004FEA17274FEA066647EA0567A6F1DE46CA
:10329000B6F1805F4FEA15251FD9384624F0010C9E
:1032A00005EBC471BCF1FE6F01EB0C1102D8F0BC50
:1032B000BDE8008124425CBF01F5801E9EEAC47F08
:1032C00002D4F0BCBDE80081244238D4F0BCA1F1A6
:1032D000C041BDE8004100F0E9B94FEAD22242EA1C
:1032E00043524FEAD323A7FB02864FEAD02040EA9D
:1032F000415007FB03661EEA0E0F4FEAD12105FB82
:10330000026658BFA6EB0056B6EB00564FEA520EC7
:103310004EEAC37E18EB0E0E56EB530EBDD518EBDE
:1033200002085E417F1C55F10005B6E74FF4801599
:103330004FF000074FF000064FF00008ADE7F0BC7B
:103340004FF0000001F1C04101F00041BDE80081F3
:1033500011EA0C1F0CEA131500D00CE013EA0C1F45
:1033600000F025804FF00000F0BC81EA030101F07D
:103370000041BDE80081F0BCBDE8004181EA0301E5
:1033800000F094B9F0BCBDE8004170B500F040F920
:10339000097EFC3E00F007B881EA03014FF000000F
:1033A00001F00041704781EA030100F07FB9F0BCF1
:1033B000BDE800414FF0000021497047FFFDFBF9D7
:1033C000F7F5F4F2F0EEEDEBE9E8E6E4E3E1E0DE58
:1033D000DDDBDAD8D7D5D4D3D1D0CFCDCCCBCAC8CA
:1033E000C7C6C5C4C2C1C0BFBEBDBCBBBAB9B8B7F1
:1033F000B6B5B4B3B2B1B0AFAEADACABAAA9A8A8E4
:10340000A7A6A5A4A3A3A2A1A09F9F9E9D9C9C9BB1
:103410009A9999989797969595949393929191905C
:103420008F8F8E8E8D8C8C8B8B8A898988888787ED
:103430008685858484838382828181800000FF0762
:103440000000F87F51EA030C17D41CF5801F58BF09
:10345000BCF5801F00F10680994218BF704708BF75
:103460009042704707D711F5801F58BF13F5801F92
:1034700019D499427047894270471CF5801F08D5BE
:10348000BCF5801FF7D58B4218BF704708BF82423A
:1034900070474FF4001C1CEB410F38BF1CEB430F6F
:1034A00001D28B42704770B500F0B2F89224490007
:1034B0004FF000514FF08053FFF760BEDFF848C176
:1034C00070B51CEA111E1EBF1CEA13159EEA0C0FF4
:1034D00095EA0C0F00F06F8081EA030423EA4C1395
:1034E0004EEAD47E21EA4C1141F4801143F480135A
:1034F000AE44A1FB024CA0FB0365AEF17F7E361902
:1035000055EB0C05A1FB034C4CF10003A0FB021C86
:1035100016EB0C06654153F10003094218BF46F053
:10352000010613F4007F0BD14FEA03314FEA053057
:10353000340341EA155140EA16506FF003020AE0E5
:103540004FEAC3214FEAC520F40241EA555140EA4F
:1035500056506FF0020202EB2E4201EB025585EA53
:10356000CE710AD05FEA440C18BF24F0004450F139
:10357000000041F1000120EAD47040F2FE7C624577
:1035800000D270BDA84214BF4FF080444FF04044B9
:10359000002E08BF0024BEF1806FA8BFA1F1C0417A
:1035A000BDE8704080F282804FF0000001F1C04120
:1035B00001F0004170479EEA0C0F0CEA131518BF8A
:1035C00095EA0C0F06D04FF0000081EA030E0EF0D2
:1035D000004170BD00F01CF88900013E00F007B802
:1035E00000F009B84FEA430C5FEA5C5C08D081EA5E
:1035F000030100F05BB84FEA410C5FEA5C5CF6D176
:103600004FF00000014970470000FF070000F87FFD
:103610000EF1020E2EF0030E5EF8046B364205D456
:10362000012A43EB030515F5001F12D8012841EBD1
:10363000010C1CF5001F0CD80ED14FEAD17C15F5FA
:10364000001F0CEB4C0C0CF1020C08BF4CEBD37CB4
:1036500004E04FF0080C01E04FEAD37C0CEB4C0582
:1036600026FA05F606F00706B6F1040C06D20EEBB4
:10367000860CBDE870404CF0010C6047DFE80CF0B0
:10368000090B02024FF000414FF00000A1F50021AC
:1036900070BD19461046012851EB010418BFD4F53E
:1036A000001484BF002001F0004170BD0808A0F59F
:1036B00000114FEA3101704710B591EA030F48BF7E
:1036C00083F000433FF5BAAC841A71EB030C07D2C8
:1036D00012198CF0004C43EB0C03001B61EB0C0146
:1036E000DFF8A4E14FEA1154A4EB135C1EEA430F88
:1036F00018BF9EEA445F00F0B08023EA6E03524296
:1037000021EA0451C3EB6E0338BF5B1EDCF1200ECF
:1037100025D322FA0CFE10EB0E0043FA0CFE41EB0F
:103720000E01CCF1200E03FA0EFE10EB0E0051F14B
:103730000001CCF1200E29D412FA0EF201EB045153
:10374000BDE8104058BF7047401C1CBFB2F1004F8D
:10375000704700280CBF491C20F00100704712EB95
:10376000020E43EB030218BF4FF0010E4EEA420275
:10377000ACF1200CDCF11E0E54D943FA0CFE10EB18
:103780000E0051F1FF31CCF11E0ED5D50EF1010E18
:1037900012FA0EFE404141EB010101EB445C5FEA8D
:1037A0005C5C10D910EBDE7001EB045138BFBEF148
:1037B000004FBDE8104018BF704700280CBF491CDF
:1037C00020F00100704730D24FEAD42C11F50011DF
:1037D00024F400641BD0B1FA81F20B3AA41AA41E9F
:1037E000D2F12003914030FA03F31943904001EBEA
:1037F000CC71002C01EB0451BDE81040A8BF70470C
:1038000001F1C0414FF0000001F000417047B0FAF3
:1038100080F310FA03F100D110BDE41A173C4805FB
:10382000C90AE4E701EB045110BD491001EB045152
:10383000BDE810404FEA300002E04FF00001704751
:103840004A0008BF0042F8D0B2F5001F28BF7047F9
:1038500001F000414FF0000070479EEA445F07D03E
:1038600011EA5E0FBDE8104004BF00210020704740
:10387000BDE8104070B5FFF7CBFE00BF40DFF63E5D
:1038800083F00041104670470000E0FF43004FEA1C
:10389000D30C4FEA3C0C43401FBF40070CF1605172
:1038A00013F0FE4F70471CF0006F03D100200CF0A6
:1038B000004170470CF0004343EA507010B540EAF5
:1038C000CC0000F028FA00BF000000924FEA00018F
:1038D000FFF7ECBE4FF000414FF00000A1F50021D2
:1038E0007047000090EA010F48BF81F0004100F1ED
:1038F000A082421A3CBF801A89184FEAD0524FF07A
:103900007F4C1CEA410FA2EBD15318BF9CEA026F17
:1039100000F03B804FF0004C4CEA00204CEA0121C3
:1039200021FA03FC10EB0C0C1ED202F1FF325FEA0D
:103930001C2040EBC25038BF70471CF07F0F4FEA8D
:10394000400C18BFBCF17F4F38BF7047C3F1200354
:10395000994008BF20F00100BCF17F4F38BF70478D
:10396000A0F1C04000F01DBA4FEA3C00000A40EB55
:10397000C25028BF1CF0FF0F4FEA400CE6D018BF22
:10398000BCF17F4F38BF7047EAE79CEA026F05D071
:1039900010EA5C0F08BF00F00040704710B500F05F
:1039A000BAF900BF64FBBE3E401058BFC0F14040B2
:1039B000491058BFC1F140418142EFF30080704788
:1039C0004FF47F0C1CEAD0121EBF1CEAD11392EAFE
:1039D0000C0F93EA0C0F00F0858090EA010F48BFAE
:1039E00042F4807240F4000C41F400002CF07F415E
:1039F00020F07F4000B58142A2EB03020FF2081CC9
:103A0000ACEB504EC0F100009EF800E04FEA4E0EC5
:103A100000FB0EFC38BF49004FEA2C1C02F5FA02ED
:103A20000CFB0EF34FEACE1E4FEA112C4FEAC121D8
:103A30000EEB635E42EB22420EFB0CFC4FEA1C5382
:103A400000FB03114FEA112C4FEA01310EFB0CFC75
:103A50004FEADC4C00FB0C11C14228BF09184CEBAB
:103A600003335DF804EB10EB410143EBC250B2F5B8
:103A70007C0F38BF704729D512F0F00F1CBF00F142
:103A8000C04000F0004070470081828384858687B3
:103A900088898B8C8D8E8F919293959697999A9C0D
:103AA0009D9FA0A2A3A5A7A8AAACAEB0B2B3B5B77C
:103AB000B9BCBEC0C2C5C7C9CCCED1D4D7D9DCDF52
:103AC000E2E6E9ECF0F3F7FAFE0000004FEA400C02
:103AD0000CF1807CBCF17E4F28BF7047B0F1C04034
:103AE00000F05FB990EA010F0CEAD11348BF42F42D
:103AF0008072624538BF634507D213F47F0F16D03A
:103B000080EA010000F00040704710B500F003F9B2
:103B1000097EFC3E00F005B880EA010000F000409C
:103B2000704780EA010000F0004000F03AB912F45A
:103B30007F0F04BF0248704780EA010000F031B9EE
:103B40000000C07FC10DD1F19E0206DB4FEA0023C9
:103B500043F0004323FA02F07047004207D54FEAD2
:103B60004001B1F1FE4F02D24FF00000704710B596
:103B700000F0D1F849922480002070476FEA2000BD
:103B800070470000B0FA80F310FA03F2C3F19D030E
:103B90000AD0D90501EB1220530638BF704700F157
:103BA000010008BF20F001007047000050EA010C3E
:103BB00000F113801CF5000F58BFBCF5000F01D4B5
:103BC0008842704707D710F5000F58BF11F5000F56
:103BD00015D488427047894270471CF5000F04D500
:103BE000BCF5000FF7D5814270474FF0807C1CEB8D
:103BF000400F38BF1CEB410F01D28142704710B516
:103C000000F089F8922449004FF000504FF08051A5
:103C1000FFF7CABE4FF47F0C1CEAD0121EBF1CEA8D
:103C2000D11392EA0C0F93EA0C0F00F0478090EA50
:103C3000010F48BF42F480724FF0004C4CEA002064
:103C40004CEA012102EB0302A0FB0113A2F50002E2
:103C5000002918BF43F001035B0028BF4FEA33037C
:103C600042EB22425FEA132C4CEBC2502EBFBCEB5E
:103C7000436FB2F57C0F70474FEA036CBCF1004F05
:103C800008BF20F00100B2F57C0F38BF70470BD59C
:103C900082F0FF0212F5803FC8BF704700F1C040BC
:103CA000D8BF00F00040704700F5000C5FEA4C0CF4
:103CB00048BF7047B0F1C04000F073B890EA010F00
:103CC0000CEAD11348BF42F48072624538BF6345A5
:103CD00004D280EA010000F00040704710B500F007
:103CE0001AF800BF8900013E00F007B800F009B8DB
:103CF0005FEA410C5FEA1C6C08D080EA010000F02A
:103D000050B85FEA400C5FEA1C6CF6D14FF00040FF
:103D1000A0F5800070470EF1020E2EF0030E5EF843
:103D2000044B244204D44FEA4102B2F17F4F11D830
:103D30004FEA4003B3F17F4F0CD80ED14FEAD07C4D
:103D4000B2F17F4F0CEB4C0C0CF1020C08BF4CEBAA
:103D5000D17C04E04FF0080C01E04FEAD17C0CEB81
:103D60004C0324FA03F404F00704B4F1040C06D263
:103D70000EEB840CBDE810404CF0010C6047DFE80E
:103D80000CF0070802024FF00040A0F5800010BDC3
:103D90000846420018BFD2F1807288BF00F0004090
:103DA00010BDFF2141EAD050C005704751EA000C18
:103DB00000F113801CF5000F58BFBCF5000F01D4B3
:103DC0008142704707D711F5000F58BF10F5000F5B
:103DD00015D481427047894270471CF5000F04D505
:103DE000BCF5000FF7D5884270474FF0807C1CEB84
:103DF000410F38BF1CEB400F01D28842704780EA68
:103E0000010081EA000180EA0100FFF7F8BE80F0BE
:103E1000004090EA010F7FF56CAD81F0004100F0A9
:103E200008B8000090EA010F48BF81F000413FF55B
:103E300060AD421A04D882F00042A0EB02001144A7
:103E40004FEAD0524FF07F4C1CEA410FA2EBD15306
:103E500018BF9CEA026F4AD04FF0004C4CEA002099
:103E60004CEA012121FA03FCB0EB0C0C0FD412F048
:103E7000FE0F36D05FEA4C001DD5001240EBC25059
:103E800038BF70471CF03F0F18BF70470BE0A2F11E
:103E900001025FEA1C2040EBC25038BF70471CF0A3
:103EA0007F0F18BF7047C3F12003994014BF401E15
:103EB00020F00100704780084FEA122308BF7047C6
:103EC000B0FA80FCA2EB0C02CCF1280C60FA0CF0EA
:103ED00093EA122F04BF00EBC25070474FEAC37041
:103EE0007047130A5FEADC1008BF7047F6E79CEAE8
:103EF000026F04D010EA5C0F08BF0020704710B5B5
:103F0000FFF709FF40DFF63E81F000407047FCF705
:103F10009ABB0000000000000000002F000000001D
:103F20000700070000147F147F1400242A7F2A1240
:103F3000006264081323003649552250000005032F
:103F4000000000001C224100000041221C0000145F
:103F5000083E08140008083E0808000000A06000A1
:103F60000008080808080000606000000020100831
:103F70000402003E5149453E0000427F400000429D
:103F800061514946002141454B31001814127F1000
:103F9000002745454539003C4A494930000171092F
:103FA000050300364949493600064949291E0000E3
:103FB000363600000000563600000008142241008A
:103FC00000141414141400004122140800020151BA
:103FD000090600324959513E007C1211127C007FC3
:103FE00049494936003E41414122007F4141221C5E
:103FF000007F49494941007F09090901003E4149C3
:10400000497A007F0808087F0000417F41000020B6
:1040100040413F01007F08142241007F4040404062
:10402000007F020C027F007F0408107F003E4141A8
:10403000413E007F09090906003E4151215E007F93
:10404000091929460046494949310001017F01010A
:10405000003F4040403F001F2040201F003F4038AD
:10406000403F0063140814630007087008070061EC
:104070005149454300007F41410000552A552A55CA
:10408000000041417F000004020102040040404062
:104090004040000001020400002054545478007F86
:1040A0004844443800384444442000384444487F5D
:1040B00000385454541800087E0901020018A4A4C2
:1040C000A47C007F080404780000447D4000004088
:1040D00080847D00007F102844000000417F400064
:1040E000007C04180478007C0804047800384444F8
:1040F000443800FC242424180018242418FC007CD4
:104100000804040800485454542000043F4440204C
:10411000003C4040207C001C2040201C003C4030E3
:10412000403C004428102844001CA0A0A07C00446F
:1041300064544C44141414141414000000000000BF
:1041400000000000000000000000000000F8000077
:104150000000000000333000000000100C06100CBE
:104160000600000000000000000040C07840C07859
:104170004000043F04043F040400007088FC083041
:104180000000001820FF211E0000F008F000E018D9
:10419000000000211C031E211E0000F00888700092
:1041A00000001E2123241927211010160E000000E4
:1041B00000000000000000000000000000E0180403
:1041C0000200000000071820400000020418E00070
:1041D00000000040201807000000404080F08040B0
:1041E00040000202010F01020200000000F0000086
:1041F00000000101011F010101000000000000009A
:10420000000080B07000000000000000000000000E
:104210000000000101010101010100000000000097
:10422000000000303000000000000000000080604E
:104230001804006018060100000000E010080810D3
:10424000E000000F102020100F00001010F80000F8
:1042500000000020203F202000000070080808888F
:10426000700000302824222130000030088888485F
:1042700030000018202020110E000000C02010F88F
:10428000000000070424243F240000F80888880860
:1042900008000019212020110E0000E01088881865
:1042A0000000000F112020110E0000380808C83847
:1042B00008000000003F0000000000708808088827
:1042C0007000001C222121221C0000E010080810B0
:1042D000E0000000312222110F00000000C0C000E9
:1042E00000000000003030000000000000800000EE
:1042F00000000000806000000000000080402010EE
:1043000008000001020408102000404040404040E6
:104310004000040404040404040000081020408049
:10432000000000201008040201000070480808087E
:10433000F0000000003036010000C030C828E8104E
:10434000E0000718272423140B000000C038E00009
:104350000000203C23020227382008F88888887053
:104360000000203F202020110E00C030080808085F
:104370003800071820202010080008F80808081046
:10438000E000203F202020100F0008F88888E8086F
:104390001000203F20202320180008F88888E80813
:1043A0001000203F200003000000C030080808383B
:1043B000000007182020221E020008F8080000084C
:1043C000F808203F210101213F20000808F80808D3
:1043D00000000020203F2020000000000808F8080E
:1043E0000800C08080807F00000008F888C028187E
:1043F0000800203F20012638200008F808000000AF
:104400000000203F20202020300008F8F800F8F8B5
:104410000800203F003F003F200008F830C000089F
:10442000F808203F200007183F00E0100808081097
:10443000E0000F10202020100F0008F808080808DE
:10444000F000203F210101010000E01008080810E1
:10445000E0000F18242438504F0008F88888888816
:104460007000203F2000030C3020007088080808EE
:1044700038000038202121221C00180808F80808FC
:1044800018000000203F2000000008F80800000885
:10449000F808001F202020201F000878880000C88E
:1044A0003808000007380E010000F80800F800087E
:1044B000F800033C0700073C030008186880806888
:1044C000180820302C03032C30200838C800C838C6
:1044D00008000000203F2000000010080808C8382D
:1044E00008002038262120201800000000FE0202CB
:1044F00002000000007F40404000000C30C000007F
:104500000000000000010638C00000020202FE00A8
:104510000000004040407F00000000000402020252
:104520000400000000000000000000000000000087
:104530000000808080808080808000020204000073
:10454000000000000000000000000000808080806B
:1045500000000019242222223F2008F80080800059
:104560000000003F112020110E000000008080801C
:104570000000000E11202020110000000080808823
:10458000F800000E112020103F2000008080808065
:104590000000001F222222221300008080F0888861
:1045A00088180020203F20200000000080808080AC
:1045B0008000006B94949493600008F800808080E1
:1045C0000000203F210000203F200080989800003C
:1045D00000000020203F202000000000008098986C
:1045E000000000C08080807F000008F8000080800C
:1045F0008000203F24022D302000000808F8000031
:1046000000000020203F20200000808080808080EB
:104610008000203F20003F20003F8080008080807D
:104620000000203F210000203F200000808080808B
:104630000000001F202020201F00808000808000BC
:10464000000080FFA12020110E000000008080806B
:104650008000000E112020A0FF80808080008080DC
:10466000800020203F212000010000008080808009
:1046700080000033242424241900008080E08080FE
:1046800000000000001F202000008080000000804B
:104690008000001F202020103F20808080000080AC
:1046A000808000010E3008060100808000800080BC
:1046B00080800F300C030C300F0000808000808061
:1046C00080000020312E0E3120008080800000808C
:1046D000808080818E70180601000080808080803C
:1046E00080000021302C2221300000000000807C5E
:1046F000020200000000003F404000000000FF00F8
:10470000000000000000FF0000000002027C8000AA
:1047100000000040403F00000000000601010202CE
:10472000040400000000000000000000024000003F
:10473000000000A00000000005400000000000C8CC
:10474000000000000C4000000000409C0000000041
:10475000194000000020BCBE0000000034400000F2
:10476000BFC91B8E00000004B5400000504BCFD0E5
:104770006607E2CF010000006C4100003E8251AAB2
:10478000DFEEA73401000000D9420000DCB5A0E252
:104790003A301F97FFFFFFFFB4450000FD25A0C87A
:1047A000E9A3C14FFFFFFFFFFF3F000000000080B3
:1047B00000000000FF3F000000000080000000003B
:1047C000FC47000800000020D00000006C01000839
:1047D000CC480008D00000203807000088010008FD
:1047E0001C00000043000000F8FFFFFF0C00000069
:1047F0000E0000000F0000002E000000000000006E
:1048000000000000000000000000000000000000A8
:104810000000000000000000000000000000000098
:104820000000000000000000000000000000000088
:1048300000A24A040000000000000000010203047E
:10484000060708090000000000000000000000004A
:104850000000000000000000000000000000000058
:104860000000000000000000000000000000000048
:104870000000010203040102030406070809020400
:10488000060800000000000000000000000000001A
:104890000000000000000000000000000000000018
:1048A0000000000000000000000000000000000008
:1048B0000000000000000000000000000000003FB9
:0C48C0000000C8420000F04100000000B1
:04000005080001ED01
:00000001FF
